{"abi":[{"type":"constructor","inputs":[{"name":"_shield","type":"address","internalType":"address"}],"stateMutability":"nonpayable"},{"type":"receive","stateMutability":"payable"},{"type":"function","name":"execute","inputs":[{"name":"dest","type":"address","internalType":"address payable"},{"name":"amount","type":"uint256","internalType":"uint256"},{"name":"data","type":"bytes","internalType":"bytes"}],"outputs":[{"name":"","type":"bytes","internalType":"bytes"}],"stateMutability":"nonpayable"},{"type":"function","name":"executeWithString","inputs":[{"name":"merchantName","type":"string","internalType":"string"},{"name":"dest","type":"address","internalType":"address payable"},{"name":"amount","type":"uint256","internalType":"uint256"},{"name":"data","type":"bytes","internalType":"bytes"}],"outputs":[{"name":"","type":"bytes","internalType":"bytes"}],"stateMutability":"nonpayable"},{"type":"function","name":"owner","inputs":[],"outputs":[{"name":"","type":"address","internalType":"address"}],"stateMutability":"view"},{"type":"function","name":"setShield","inputs":[{"name":"_newShield","type":"address","internalType":"address"}],"outputs":[],"stateMutability":"nonpayable"},{"type":"function","name":"shield","inputs":[],"outputs":[{"name":"","type":"address","internalType":"contract IAgentShield"}],"stateMutability":"view"},{"type":"function","name":"transferOwnership","inputs":[{"name":"newOwner","type":"address","internalType":"address"}],"outputs":[],"stateMutability":"nonpayable"},{"type":"event","name":"OwnershipTransferred","inputs":[{"name":"previousOwner","type":"address","indexed":true,"internalType":"address"},{"name":"newOwner","type":"address","indexed":true,"internalType":"address"}],"anonymous":false},{"type":"event","name":"ShieldUpdated","inputs":[{"name":"oldShield","type":"address","indexed":true,"internalType":"address"},{"name":"newShield","type":"address","indexed":true,"internalType":"address"}],"anonymous":false},{"type":"event","name":"TransactionExecuted","inputs":[{"name":"dest","type":"address","indexed":true,"internalType":"address"},{"name":"amount","type":"uint256","indexed":false,"internalType":"uint256"},{"name":"data","type":"bytes","indexed":false,"internalType":"bytes"},{"name":"result","type":"bytes","indexed":false,"internalType":"bytes"}],"anonymous":false},{"type":"error","name":"WalletExecutionFailed","inputs":[]},{"type":"error","name":"WalletInvalidAddress","inputs":[]},{"type":"error","name":"WalletOnlyOwner","inputs":[]}],"bytecode":{"object":"0x608060405234801561000f575f5ffd5b5060405161113d38038061113d83398181016040528101906100319190610179565b5f73ffffffffffffffffffffffffffffffffffffffff168173ffffffffffffffffffffffffffffffffffffffff1603610096576040517fdfadc57100000000000000000000000000000000000000000000000000000000815260040160405180910390fd5b335f5f6101000a81548173ffffffffffffffffffffffffffffffffffffffff021916908373ffffffffffffffffffffffffffffffffffffffff1602179055508060015f6101000a81548173ffffffffffffffffffffffffffffffffffffffff021916908373ffffffffffffffffffffffffffffffffffffffff160217905550506101a4565b5f5ffd5b5f73ffffffffffffffffffffffffffffffffffffffff82169050919050565b5f6101488261011f565b9050919050565b6101588161013e565b8114610162575f5ffd5b50565b5f815190506101738161014f565b92915050565b5f6020828403121561018e5761018d61011b565b5b5f61019b84828501610165565b91505092915050565b610f8c806101b15f395ff3fe608060405260043610610058575f3560e01c806370d39cff146100635780638da5cb5b1461008d578063b61d27f6146100b7578063db95cfd1146100f3578063e76112e61461012f578063f2fde38b146101575761005f565b3661005f57005b5f5ffd5b34801561006e575f5ffd5b5061007761017f565b60405161008491906109ea565b60405180910390f35b348015610098575f5ffd5b506100a16101a4565b6040516100ae9190610a23565b60405180910390f35b3480156100c2575f5ffd5b506100dd60048036038101906100d89190610b13565b6101c8565b6040516100ea9190610bf4565b60405180910390f35b3480156100fe575f5ffd5b5061011960048036038101906101149190610c69565b6103f2565b6040516101269190610bf4565b60405180910390f35b34801561013a575f5ffd5b5061015560048036038101906101509190610d36565b610622565b005b348015610162575f5ffd5b5061017d60048036038101906101789190610d36565b6107ca565b005b60015f9054906101000a900473ffffffffffffffffffffffffffffffffffffffff1681565b5f5f9054906101000a900473ffffffffffffffffffffffffffffffffffffffff1681565b60605f5f9054906101000a900473ffffffffffffffffffffffffffffffffffffffff1673ffffffffffffffffffffffffffffffffffffffff163373ffffffffffffffffffffffffffffffffffffffff161461024f576040517f71bb717500000000000000000000000000000000000000000000000000000000815260040160405180910390fd5b60015f9054906101000a900473ffffffffffffffffffffffffffffffffffffffff1673ffffffffffffffffffffffffffffffffffffffff1663606966be86866040518363ffffffff1660e01b81526004016102ab929190610d90565b6020604051808303815f875af11580156102c7573d5f5f3e3d5ffd5b505050506040513d601f19601f820116820180604052508101906102eb9190610dec565b505f5f8673ffffffffffffffffffffffffffffffffffffffff16868686604051610316929190610e53565b5f6040518083038185875af1925050503d805f8114610350576040519150601f19603f3d011682016040523d82523d5f602084013e610355565b606091505b509150915081610391576040517fc2d04b2000000000000000000000000000000000000000000000000000000000815260040160405180910390fd5b8673ffffffffffffffffffffffffffffffffffffffff167f012ae8711b8dc37e405d8e422569d1ee78d52d76bc8fe2a9ea81ffe17569e51a878787856040516103dd9493929190610e97565b60405180910390a28092505050949350505050565b60605f5f9054906101000a900473ffffffffffffffffffffffffffffffffffffffff1673ffffffffffffffffffffffffffffffffffffffff163373ffffffffffffffffffffffffffffffffffffffff1614610479576040517f71bb717500000000000000000000000000000000000000000000000000000000815260040160405180910390fd5b60015f9054906101000a900473ffffffffffffffffffffffffffffffffffffffff1673ffffffffffffffffffffffffffffffffffffffff1663e9528560888888886040518563ffffffff1660e01b81526004016104d99493929190610f18565b6020604051808303815f875af11580156104f5573d5f5f3e3d5ffd5b505050506040513d601f19601f820116820180604052508101906105199190610dec565b505f5f8673ffffffffffffffffffffffffffffffffffffffff16868686604051610544929190610e53565b5f6040518083038185875af1925050503d805f811461057e576040519150601f19603f3d011682016040523d82523d5f602084013e610583565b606091505b5091509150816105bf576040517fc2d04b2000000000000000000000000000000000000000000000000000000000815260040160405180910390fd5b8673ffffffffffffffffffffffffffffffffffffffff167f012ae8711b8dc37e405d8e422569d1ee78d52d76bc8fe2a9ea81ffe17569e51a8787878560405161060b9493929190610e97565b60405180910390a280925050509695505050505050565b5f5f9054906101000a900473ffffffffffffffffffffffffffffffffffffffff1673ffffffffffffffffffffffffffffffffffffffff163373ffffffffffffffffffffffffffffffffffffffff16146106a7576040517f71bb717500000000000000000000000000000000000000000000000000000000815260040160405180910390fd5b5f73ffffffffffffffffffffffffffffffffffffffff168173ffffffffffffffffffffffffffffffffffffffff160361070c576040517fdfadc57100000000000000000000000000000000000000000000000000000000815260040160405180910390fd5b8073ffffffffffffffffffffffffffffffffffffffff1660015f9054906101000a900473ffffffffffffffffffffffffffffffffffffffff1673ffffffffffffffffffffffffffffffffffffffff167f38ecf177db8bc67f687455514b7597876fdafbc9fc64c994c227ce07e2d3aa2a60405160405180910390a38060015f6101000a81548173ffffffffffffffffffffffffffffffffffffffff021916908373ffffffffffffffffffffffffffffffffffffffff16021790555050565b5f5f9054906101000a900473ffffffffffffffffffffffffffffffffffffffff1673ffffffffffffffffffffffffffffffffffffffff163373ffffffffffffffffffffffffffffffffffffffff161461084f576040517f71bb717500000000000000000000000000000000000000000000000000000000815260040160405180910390fd5b5f73ffffffffffffffffffffffffffffffffffffffff168173ffffffffffffffffffffffffffffffffffffffff16036108b4576040517fdfadc57100000000000000000000000000000000000000000000000000000000815260040160405180910390fd5b8073ffffffffffffffffffffffffffffffffffffffff165f5f9054906101000a900473ffffffffffffffffffffffffffffffffffffffff1673ffffffffffffffffffffffffffffffffffffffff167f8be0079c531659141344cd1fd0a4f28419497f9722a3daafe3b4186f6b6457e060405160405180910390a3805f5f6101000a81548173ffffffffffffffffffffffffffffffffffffffff021916908373ffffffffffffffffffffffffffffffffffffffff16021790555050565b5f73ffffffffffffffffffffffffffffffffffffffff82169050919050565b5f819050919050565b5f6109b26109ad6109a884610970565b61098f565b610970565b9050919050565b5f6109c382610998565b9050919050565b5f6109d4826109b9565b9050919050565b6109e4816109ca565b82525050565b5f6020820190506109fd5f8301846109db565b92915050565b5f610a0d82610970565b9050919050565b610a1d81610a03565b82525050565b5f602082019050610a365f830184610a14565b92915050565b5f5ffd5b5f5ffd5b5f610a4e82610970565b9050919050565b610a5e81610a44565b8114610a68575f5ffd5b50565b5f81359050610a7981610a55565b92915050565b5f819050919050565b610a9181610a7f565b8114610a9b575f5ffd5b50565b5f81359050610aac81610a88565b92915050565b5f5ffd5b5f5ffd5b5f5ffd5b5f5f83601f840112610ad357610ad2610ab2565b5b8235905067ffffffffffffffff811115610af057610aef610ab6565b5b602083019150836001820283011115610b0c57610b0b610aba565b5b9250929050565b5f5f5f5f60608587031215610b2b57610b2a610a3c565b5b5f610b3887828801610a6b565b9450506020610b4987828801610a9e565b935050604085013567ffffffffffffffff811115610b6a57610b69610a40565b5b610b7687828801610abe565b925092505092959194509250565b5f81519050919050565b5f82825260208201905092915050565b8281835e5f83830152505050565b5f601f19601f8301169050919050565b5f610bc682610b84565b610bd08185610b8e565b9350610be0818560208601610b9e565b610be981610bac565b840191505092915050565b5f6020820190508181035f830152610c0c8184610bbc565b905092915050565b5f5f83601f840112610c2957610c28610ab2565b5b8235905067ffffffffffffffff811115610c4657610c45610ab6565b5b602083019150836001820283011115610c6257610c61610aba565b5b9250929050565b5f5f5f5f5f5f60808789031215610c8357610c82610a3c565b5b5f87013567ffffffffffffffff811115610ca057610c9f610a40565b5b610cac89828a01610c14565b96509650506020610cbf89828a01610a6b565b9450506040610cd089828a01610a9e565b935050606087013567ffffffffffffffff811115610cf157610cf0610a40565b5b610cfd89828a01610abe565b92509250509295509295509295565b610d1581610a03565b8114610d1f575f5ffd5b50565b5f81359050610d3081610d0c565b92915050565b5f60208284031215610d4b57610d4a610a3c565b5b5f610d5884828501610d22565b91505092915050565b5f610d6b826109b9565b9050919050565b610d7b81610d61565b82525050565b610d8a81610a7f565b82525050565b5f604082019050610da35f830185610d72565b610db06020830184610d81565b9392505050565b5f8115159050919050565b610dcb81610db7565b8114610dd5575f5ffd5b50565b5f81519050610de681610dc2565b92915050565b5f60208284031215610e0157610e00610a3c565b5b5f610e0e84828501610dd8565b91505092915050565b5f81905092915050565b828183375f83830152505050565b5f610e3a8385610e17565b9350610e47838584610e21565b82840190509392505050565b5f610e5f828486610e2f565b91508190509392505050565b5f610e768385610b8e565b9350610e83838584610e21565b610e8c83610bac565b840190509392505050565b5f606082019050610eaa5f830187610d81565b8181036020830152610ebd818587610e6b565b90508181036040830152610ed18184610bbc565b905095945050505050565b5f82825260208201905092915050565b5f610ef78385610edc565b9350610f04838584610e21565b610f0d83610bac565b840190509392505050565b5f6060820190508181035f830152610f31818688610eec565b9050610f406020830185610d72565b610f4d6040830184610d81565b9594505050505056fea2646970667358221220b4683e996002fe5153e52186d9f583b725585964d0cd50fafb9a7ffa010f020864736f6c63430008230033","linkReferences":{}},"methodIdentifiers":{"execute(address,uint256,bytes)":"b61d27f6","executeWithString(string,address,uint256,bytes)":"db95cfd1","owner()":"8da5cb5b","setShield(address)":"e76112e6","shield()":"70d39cff","transferOwnership(address)":"f2fde38b"},"id":23}