{"abi":[{"type":"constructor","inputs":[],"stateMutability":"nonpayable"},{"type":"function","name":"checkAndRecord","inputs":[{"name":"merchant","type":"address","internalType":"address"},{"name":"amount","type":"uint256","internalType":"uint256"}],"outputs":[{"name":"","type":"bool","internalType":"bool"}],"stateMutability":"nonpayable"},{"type":"function","name":"checkAndRecordString","inputs":[{"name":"merchantName","type":"string","internalType":"string"},{"name":"merchantAddress","type":"address","internalType":"address"},{"name":"amount","type":"uint256","internalType":"uint256"}],"outputs":[{"name":"","type":"bool","internalType":"bool"}],"stateMutability":"nonpayable"},{"type":"function","name":"contains","inputs":[{"name":"haystack","type":"string","internalType":"string"},{"name":"needle","type":"string","internalType":"string"}],"outputs":[{"name":"","type":"bool","internalType":"bool"}],"stateMutability":"pure"},{"type":"function","name":"customAddressReputation","inputs":[{"name":"","type":"address","internalType":"address"}],"outputs":[{"name":"","type":"uint8","internalType":"uint8"}],"stateMutability":"view"},{"type":"function","name":"customNameReputation","inputs":[{"name":"","type":"bytes32","internalType":"bytes32"}],"outputs":[{"name":"","type":"uint8","internalType":"uint8"}],"stateMutability":"view"},{"type":"function","name":"dailyLimit","inputs":[],"outputs":[{"name":"","type":"uint256","internalType":"uint256"}],"stateMutability":"view"},{"type":"function","name":"dailySpend","inputs":[{"name":"","type":"address","internalType":"address"},{"name":"","type":"uint256","internalType":"uint256"}],"outputs":[{"name":"","type":"uint256","internalType":"uint256"}],"stateMutability":"view"},{"type":"function","name":"getAddressReputation","inputs":[{"name":"merchant","type":"address","internalType":"address"}],"outputs":[{"name":"score","type":"uint8","internalType":"uint8"},{"name":"source","type":"string","internalType":"string"}],"stateMutability":"view"},{"type":"function","name":"getDeterministicScoreString","inputs":[{"name":"str","type":"string","internalType":"string"}],"outputs":[{"name":"","type":"uint8","internalType":"uint8"}],"stateMutability":"pure"},{"type":"function","name":"getNameReputation","inputs":[{"name":"name","type":"string","internalType":"string"}],"outputs":[{"name":"score","type":"uint8","internalType":"uint8"},{"name":"source","type":"string","internalType":"string"}],"stateMutability":"view"},{"type":"function","name":"hasCustomAddressReputation","inputs":[{"name":"","type":"address","internalType":"address"}],"outputs":[{"name":"","type":"bool","internalType":"bool"}],"stateMutability":"view"},{"type":"function","name":"hasCustomNameReputation","inputs":[{"name":"","type":"bytes32","internalType":"bytes32"}],"outputs":[{"name":"","type":"bool","internalType":"bool"}],"stateMutability":"view"},{"type":"function","name":"isSuspicious","inputs":[{"name":"name","type":"string","internalType":"string"}],"outputs":[{"name":"","type":"bool","internalType":"bool"}],"stateMutability":"pure"},{"type":"function","name":"minReputation","inputs":[],"outputs":[{"name":"","type":"uint8","internalType":"uint8"}],"stateMutability":"view"},{"type":"function","name":"owner","inputs":[],"outputs":[{"name":"","type":"address","internalType":"address"}],"stateMutability":"view"},{"type":"function","name":"rateLimitMaxRequests","inputs":[],"outputs":[{"name":"","type":"uint256","internalType":"uint256"}],"stateMutability":"view"},{"type":"function","name":"rateLimitStartIndex","inputs":[{"name":"","type":"address","internalType":"address"}],"outputs":[{"name":"","type":"uint256","internalType":"uint256"}],"stateMutability":"view"},{"type":"function","name":"rateLimitWindow","inputs":[],"outputs":[{"name":"","type":"uint256","internalType":"uint256"}],"stateMutability":"view"},{"type":"function","name":"setAddressReputation","inputs":[{"name":"merchant","type":"address","internalType":"address"},{"name":"score","type":"uint8","internalType":"uint8"}],"outputs":[],"stateMutability":"nonpayable"},{"type":"function","name":"setDailyLimit","inputs":[{"name":"_dailyLimit","type":"uint256","internalType":"uint256"}],"outputs":[],"stateMutability":"nonpayable"},{"type":"function","name":"setMinReputation","inputs":[{"name":"_minReputation","type":"uint8","internalType":"uint8"}],"outputs":[],"stateMutability":"nonpayable"},{"type":"function","name":"setNameReputation","inputs":[{"name":"name","type":"string","internalType":"string"},{"name":"score","type":"uint8","internalType":"uint8"}],"outputs":[],"stateMutability":"nonpayable"},{"type":"function","name":"setRateLimit","inputs":[{"name":"_maxRequests","type":"uint256","internalType":"uint256"},{"name":"_windowSeconds","type":"uint256","internalType":"uint256"}],"outputs":[],"stateMutability":"nonpayable"},{"type":"function","name":"setWhitelistEnabled","inputs":[{"name":"_enabled","type":"bool","internalType":"bool"}],"outputs":[],"stateMutability":"nonpayable"},{"type":"function","name":"toLower","inputs":[{"name":"str","type":"string","internalType":"string"}],"outputs":[{"name":"","type":"string","internalType":"string"}],"stateMutability":"pure"},{"type":"function","name":"transferOwnership","inputs":[{"name":"newOwner","type":"address","internalType":"address"}],"outputs":[],"stateMutability":"nonpayable"},{"type":"function","name":"txTimestamps","inputs":[{"name":"","type":"address","internalType":"address"},{"name":"","type":"uint256","internalType":"uint256"}],"outputs":[{"name":"","type":"uint256","internalType":"uint256"}],"stateMutability":"view"},{"type":"function","name":"updateMerchantWhitelist","inputs":[{"name":"merchant","type":"address","internalType":"address"},{"name":"status","type":"bool","internalType":"bool"}],"outputs":[],"stateMutability":"nonpayable"},{"type":"function","name":"whitelist","inputs":[{"name":"","type":"address","internalType":"address"}],"outputs":[{"name":"","type":"bool","internalType":"bool"}],"stateMutability":"view"},{"type":"function","name":"whitelistEnabled","inputs":[],"outputs":[{"name":"","type":"bool","internalType":"bool"}],"stateMutability":"view"},{"type":"event","name":"AddressReputationUpdated","inputs":[{"name":"merchant","type":"address","indexed":true,"internalType":"address"},{"name":"score","type":"uint8","indexed":false,"internalType":"uint8"}],"anonymous":false},{"type":"event","name":"DailyLimitUpdated","inputs":[{"name":"oldLimit","type":"uint256","indexed":false,"internalType":"uint256"},{"name":"newLimit","type":"uint256","indexed":false,"internalType":"uint256"}],"anonymous":false},{"type":"event","name":"MerchantWhitelistUpdated","inputs":[{"name":"merchant","type":"address","indexed":true,"internalType":"address"},{"name":"status","type":"bool","indexed":false,"internalType":"bool"}],"anonymous":false},{"type":"event","name":"MinReputationUpdated","inputs":[{"name":"oldMin","type":"uint8","indexed":false,"internalType":"uint8"},{"name":"newMin","type":"uint8","indexed":false,"internalType":"uint8"}],"anonymous":false},{"type":"event","name":"NameReputationUpdated","inputs":[{"name":"name","type":"string","indexed":false,"internalType":"string"},{"name":"score","type":"uint8","indexed":false,"internalType":"uint8"}],"anonymous":false},{"type":"event","name":"OwnershipTransferred","inputs":[{"name":"previousOwner","type":"address","indexed":true,"internalType":"address"},{"name":"newOwner","type":"address","indexed":true,"internalType":"address"}],"anonymous":false},{"type":"event","name":"RateLimitUpdated","inputs":[{"name":"oldMaxRequests","type":"uint256","indexed":false,"internalType":"uint256"},{"name":"oldWindow","type":"uint256","indexed":false,"internalType":"uint256"},{"name":"newMaxRequests","type":"uint256","indexed":false,"internalType":"uint256"},{"name":"newWindow","type":"uint256","indexed":false,"internalType":"uint256"}],"anonymous":false},{"type":"event","name":"TransactionChecked","inputs":[{"name":"agent","type":"address","indexed":true,"internalType":"address"},{"name":"merchant","type":"address","indexed":true,"internalType":"address"},{"name":"amount","type":"uint256","indexed":false,"internalType":"uint256"},{"name":"approved","type":"bool","indexed":false,"internalType":"bool"},{"name":"reason","type":"string","indexed":false,"internalType":"string"}],"anonymous":false},{"type":"event","name":"WhitelistToggled","inputs":[{"name":"enabled","type":"bool","indexed":false,"internalType":"bool"}],"anonymous":false},{"type":"error","name":"ShieldDailyLimitExceeded","inputs":[{"name":"amount","type":"uint256","internalType":"uint256"},{"name":"limit","type":"uint256","internalType":"uint256"},{"name":"currentSpend","type":"uint256","internalType":"uint256"}]},{"type":"error","name":"ShieldInvalidAddress","inputs":[]},{"type":"error","name":"ShieldInvalidAmount","inputs":[]},{"type":"error","name":"ShieldInvalidReputationScore","inputs":[{"name":"score","type":"uint8","internalType":"uint8"}]},{"type":"error","name":"ShieldNotWhitelisted","inputs":[{"name":"merchant","type":"address","internalType":"address"}]},{"type":"error","name":"ShieldOnlyOwner","inputs":[]},{"type":"error","name":"ShieldRateLimitExceeded","inputs":[{"name":"activeCount","type":"uint256","internalType":"uint256"},{"name":"maxRequests","type":"uint256","internalType":"uint256"},{"name":"secUntilReset","type":"uint256","internalType":"uint256"}]},{"type":"error","name":"ShieldReputationTooLow","inputs":[{"name":"merchant","type":"address","internalType":"address"},{"name":"score","type":"uint8","internalType":"uint8"},{"name":"minRequired","type":"uint8","internalType":"uint8"}]},{"type":"error","name":"ShieldReputationTooLowString","inputs":[{"name":"merchant","type":"string","internalType":"string"},{"name":"score","type":"uint8","internalType":"uint8"},{"name":"minRequired","type":"uint8","internalType":"uint8"}]}],"bytecode":{"object":"0x608060405234801561000f575f5ffd5b50335f5f6101000a81548173ffffffffffffffffffffffffffffffffffffffff021916908373ffffffffffffffffffffffffffffffffffffffff16021790555068056bc75e2d63100000600181905550604660025f6101000a81548160ff021916908360ff1602179055506005600381905550603c6004819055505f60055f6101000a81548160ff0219169083151502179055506100b16100b660201b60201c565b610a2a565b6100fc6040518060400160405280600681526020017f6f70656e6169000000000000000000000000000000000000000000000000000081525060636106bc60201b60201c565b6101426040518060400160405280600981526020017f616e7468726f706963000000000000000000000000000000000000000000000081525060626106bc60201b60201c565b6101886040518060400160405280600681526020017f737472697065000000000000000000000000000000000000000000000000000081525060636106bc60201b60201c565b6101ce6040518060400160405280600681526020017f676974687562000000000000000000000000000000000000000000000000000081525060616106bc60201b60201c565b6102146040518060400160405280600381526020017f617773000000000000000000000000000000000000000000000000000000000081525060626106bc60201b60201c565b61025a6040518060400160405280600681526020017f616d617a6f6e000000000000000000000000000000000000000000000000000081525060626106bc60201b60201c565b6102a06040518060400160405280600681526020017f76657263656c000000000000000000000000000000000000000000000000000081525060606106bc60201b60201c565b6102e66040518060400160405280600681526020017f676f6f676c65000000000000000000000000000000000000000000000000000081525060636106bc60201b60201c565b61032c6040518060400160405280600981526020017f6d6963726f736f6674000000000000000000000000000000000000000000000081525060616106bc60201b60201c565b6103726040518060400160405280600a81526020017f636c6f7564666c6172650000000000000000000000000000000000000000000081525060626106bc60201b60201c565b6103b86040518060400160405280600381526020017f6e706d0000000000000000000000000000000000000000000000000000000000815250605f6106bc60201b60201c565b6103fe6040518060400160405280600681526020017f636f686572650000000000000000000000000000000000000000000000000000815250605a6106bc60201b60201c565b6104446040518060400160405280600a81526020017f6d69646a6f75726e65790000000000000000000000000000000000000000000081525060586106bc60201b60201c565b61048a6040518060400160405280600a81526020017f656c6576656e6c6162730000000000000000000000000000000000000000000081525060586106bc60201b60201c565b6104d06040518060400160405280600681526020017f726573656e640000000000000000000000000000000000000000000000000000815250605c6106bc60201b60201c565b6105166040518060400160405280600781526020017f7261696c77617900000000000000000000000000000000000000000000000000815250605a6106bc60201b60201c565b61055c6040518060400160405280600681526020017f72656e6465720000000000000000000000000000000000000000000000000000815250605a6106bc60201b60201c565b6105a26040518060400160405280600681526020017f6865726f6b750000000000000000000000000000000000000000000000000000815250605a6106bc60201b60201c565b6105e86040518060400160405280600881526020017f7375706162617365000000000000000000000000000000000000000000000000815250605e6106bc60201b60201c565b61062e6040518060400160405280600481526020017f6e656f6e00000000000000000000000000000000000000000000000000000000815250605c6106bc60201b60201c565b6106746040518060400160405280600881526020017f70696e65636f6e65000000000000000000000000000000000000000000000000815250605c6106bc60201b60201c565b6106ba6040518060400160405280600781526020017f6d6f6e676f646200000000000000000000000000000000000000000000000000815250605e6106bc60201b60201c565b565b5f6106cc8361074b60201b60201c565b6040516020016106dc919061094d565b6040516020818303038152906040528051906020012090508160095f8381526020019081526020015f205f6101000a81548160ff021916908360ff1602179055506001600a5f8381526020019081526020015f205f6101000a81548160ff021916908315150217905550505050565b60605f8290505f815167ffffffffffffffff81111561076d5761076c610963565b5b6040519080825280601f01601f19166020018201604052801561079f5781602001600182028036833780820191505090505b5090505f5f90505b82518110156108f05760418382815181106107c5576107c4610990565b5b602001015160f81c60f81b60f81c60ff16101580156108085750605a8382815181106107f4576107f3610990565b5b602001015160f81c60f81b60f81c60ff1611155b1561088357602083828151811061082257610821610990565b5b602001015160f81c60f81b60f81c61083a91906109f6565b60f81b8282815181106108505761084f610990565b5b60200101907effffffffffffffffffffffffffffffffffffffffffffffffffffffffffffff191690815f1a9053506108e3565b82818151811061089657610895610990565b5b602001015160f81c60f81b8282815181106108b4576108b3610990565b5b60200101907effffffffffffffffffffffffffffffffffffffffffffffffffffffffffffff191690815f1a9053505b80806001019150506107a7565b508092505050919050565b5f81519050919050565b5f81905092915050565b8281835e5f83830152505050565b5f610927826108fb565b6109318185610905565b935061094181856020860161090f565b80840191505092915050565b5f610958828461091d565b915081905092915050565b7f4e487b71000000000000000000000000000000000000000000000000000000005f52604160045260245ffd5b7f4e487b71000000000000000000000000000000000000000000000000000000005f52603260045260245ffd5b5f60ff82169050919050565b7f4e487b71000000000000000000000000000000000000000000000000000000005f52601160045260245ffd5b5f610a00826109bd565b9150610a0b836109bd565b9250828201905060ff811115610a2457610a236109c9565b5b92915050565b6130df80610a375f395ff3fe608060405234801561000f575f5ffd5b50600436106101d7575f3560e01c80638da5cb5b11610102578063b20d30a9116100a0578063eaf837551161006f578063eaf83755146105eb578063ef7f0ab614610607578063f2fde38b14610625578063f3e6d0eb14610641576101d7565b8063b20d30a914610553578063b53f52271461056f578063e2e144331461058b578063e9528560146105bb576101d7565b806396d13eea116100dc57806396d13eea146104a45780639b19251a146104c25780639fc4362d146104f2578063a28117f714610523576101d7565b80638da5cb5b146104265780639416b42314610444578063958fc13a14610474576101d7565b80634df029001161017a57806367eeba0c1161014957806367eeba0c1461038c5780636a18a122146103aa5780637c8b2be2146103da5780638362b108146103f6576101d7565b80634df02900146102f0578063500e595c1461030e57806351fb012d1461033e578063606966be1461035c576101d7565b80632b291c2c116101b65780632b291c2c146102445780633fb18aec146102745780634a0fa8d0146102a45780634dc9befa146102c0576101d7565b8062dadf3a146101db578063052d9e7e1461020c5780630f799b9c14610228575b5f5ffd5b6101f560048036038101906101f09190612474565b610671565b60405161020392919061252a565b60405180910390f35b6102266004803603810190610221919061258d565b6107bf565b005b610242600480360381019061023d91906125e2565b610897565b005b61025e60048036038101906102599190612653565b610ac6565b60405161026b91906126a0565b60405180910390f35b61028e600480360381019061028991906127e5565b610ae6565b60405161029b919061286a565b60405180910390f35b6102be60048036038101906102b991906128e0565b610c09565b005b6102da60048036038101906102d59190612653565b610d64565b6040516102e791906126a0565b60405180910390f35b6102f8610d8f565b60405161030591906126a0565b60405180910390f35b61032860048036038101906103239190612474565b610d95565b604051610335919061293d565b60405180910390f35b610346610db2565b604051610353919061286a565b60405180910390f35b61037660048036038101906103719190612653565b610dc4565b604051610383919061286a565b60405180910390f35b610394611074565b6040516103a191906126a0565b60405180910390f35b6103c460048036038101906103bf9190612956565b61107a565b6040516103d1919061293d565b60405180910390f35b6103f460048036038101906103ef919061299d565b61111f565b005b610410600480360381019061040b9190612474565b6112af565b60405161041d91906126a0565b60405180910390f35b61042e6112c4565b60405161043b91906129ea565b60405180910390f35b61045e60048036038101906104599190612956565b6112e8565b60405161046b9190612a03565b60405180910390f35b61048e60048036038101906104899190612956565b611498565b60405161049b919061286a565b60405180910390f35b6104ac611857565b6040516104b991906126a0565b60405180910390f35b6104dc60048036038101906104d79190612474565b61185d565b6040516104e9919061286a565b60405180910390f35b61050c60048036038101906105079190612956565b61187a565b60405161051a92919061252a565b60405180910390f35b61053d60048036038101906105389190612a56565b61199c565b60405161054a919061293d565b60405180910390f35b61056d60048036038101906105689190612a81565b6119b9565b005b61058960048036038101906105849190612aac565b611a83565b005b6105a560048036038101906105a09190612a56565b611b5b565b6040516105b2919061286a565b60405180910390f35b6105d560048036038101906105d09190612aea565b611b78565b6040516105e2919061286a565b60405180910390f35b61060560048036038101906106009190612b5b565b611e6f565b005b61060f611fa1565b60405161061c919061293d565b60405180910390f35b61063f600480360381019061063a9190612474565b611fb3565b005b61065b60048036038101906106569190612474565b612159565b604051610668919061286a565b60405180910390f35b5f606060085f8473ffffffffffffffffffffffffffffffffffffffff1673ffffffffffffffffffffffffffffffffffffffff1681526020019081526020015f205f9054906101000a900460ff161561074c5760075f8473ffffffffffffffffffffffffffffffffffffffff1673ffffffffffffffffffffffffffffffffffffffff1681526020019081526020015f205f9054906101000a900460ff166040518060400160405280601281526020017f5265676973747279202841646472657373290000000000000000000000000000815250915091506107ba565b5f8360405160200161075e9190612bcb565b6040516020818303038152906040528051906020012090505f815f1c90505f602d8261078a9190612c12565b60286107969190612c6f565b90508060405180606001604052806026815260200161303d60269139945094505050505b915091565b5f5f9054906101000a900473ffffffffffffffffffffffffffffffffffffffff1673ffffffffffffffffffffffffffffffffffffffff163373ffffffffffffffffffffffffffffffffffffffff1614610844576040517f073d482a00000000000000000000000000000000000000000000000000000000815260040160405180910390fd5b8060055f6101000a81548160ff0219169083151502179055507fc816dd38770d8cbe6a8fb169cb4961c28b697d528ebfd3c353ab8f74e82f1f9a8160405161088c919061286a565b60405180910390a150565b5f5f9054906101000a900473ffffffffffffffffffffffffffffffffffffffff1673ffffffffffffffffffffffffffffffffffffffff163373ffffffffffffffffffffffffffffffffffffffff161461091c576040517f073d482a00000000000000000000000000000000000000000000000000000000815260040160405180910390fd5b5f73ffffffffffffffffffffffffffffffffffffffff168273ffffffffffffffffffffffffffffffffffffffff1603610981576040517ff7abf3e700000000000000000000000000000000000000000000000000000000815260040160405180910390fd5b60648160ff1611156109ca57806040517f9da880e30000000000000000000000000000000000000000000000000000000081526004016109c1919061293d565b60405180910390fd5b8060075f8473ffffffffffffffffffffffffffffffffffffffff1673ffffffffffffffffffffffffffffffffffffffff1681526020019081526020015f205f6101000a81548160ff021916908360ff160217905550600160085f8473ffffffffffffffffffffffffffffffffffffffff1673ffffffffffffffffffffffffffffffffffffffff1681526020019081526020015f205f6101000a81548160ff0219169083151502179055508173ffffffffffffffffffffffffffffffffffffffff167fdfa1789cea1d1ccd7125ce549b584210907b6619d52dd7c054688d938e6fac0982604051610aba919061293d565b60405180910390a25050565b600b602052815f5260405f20602052805f5260405f205f91509150505481565b5f5f8390505f839050805182511015610b03575f92505050610c03565b5f5f90505b81518351610b169190612ca2565b8111610bfc575f600190505f5f90505b8351811015610bd457838181518110610b4257610b41612cd5565b5b602001015160f81c60f81b7effffffffffffffffffffffffffffffffffffffffffffffffffffffffffffff1916858285610b7c9190612c6f565b81518110610b8d57610b8c612cd5565b5b602001015160f81c60f81b7effffffffffffffffffffffffffffffffffffffffffffffffffffffffffffff191614610bc7575f9150610bd4565b8080600101915050610b26565b508015610be8576001945050505050610c03565b508080610bf490612d02565b915050610b08565b505f925050505b92915050565b5f5f9054906101000a900473ffffffffffffffffffffffffffffffffffffffff1673ffffffffffffffffffffffffffffffffffffffff163373ffffffffffffffffffffffffffffffffffffffff1614610c8e576040517f073d482a00000000000000000000000000000000000000000000000000000000815260040160405180910390fd5b60648160ff161115610cd757806040517f9da880e3000000000000000000000000000000000000000000000000000000008152600401610cce919061293d565b60405180910390fd5b610d2483838080601f0160208091040260200160405190810160405280939291908181526020018383808284375f81840152601f19601f8201169050808301925050505050505082612176565b7f075763a13d9346cd1a4b3319b3985cf45f95984e0d589b54cc52cc8120a230d9838383604051610d5793929190612d75565b60405180910390a1505050565b600c602052815f5260405f208181548110610d7d575f80fd5b905f5260205f20015f91509150505481565b60045481565b6007602052805f5260405f205f915054906101000a900460ff1681565b60055f9054906101000a900460ff1681565b5f5f339050610dd2816121ff565b60055f9054906101000a900460ff168015610e34575060065f8573ffffffffffffffffffffffffffffffffffffffff1673ffffffffffffffffffffffffffffffffffffffff1681526020019081526020015f205f9054906101000a900460ff16155b15610e7657836040517f25adc142000000000000000000000000000000000000000000000000000000008152600401610e6d91906129ea565b60405180910390fd5b5f610e8085610671565b50905060025f9054906101000a900460ff1660ff168160ff161015610eee57848160025f9054906101000a900460ff166040517ff8120329000000000000000000000000000000000000000000000000000000008152600401610ee593929190612da5565b60405180910390fd5b5f6201518042610efe9190612dda565b90505f600b5f8573ffffffffffffffffffffffffffffffffffffffff1673ffffffffffffffffffffffffffffffffffffffff1681526020019081526020015f205f8381526020019081526020015f205490505f8682610f5d9190612c6f565b9050600154811115610fac5786600154836040517f1294c55a000000000000000000000000000000000000000000000000000000008152600401610fa393929190612e0a565b60405180910390fd5b80600b5f8773ffffffffffffffffffffffffffffffffffffffff1673ffffffffffffffffffffffffffffffffffffffff1681526020019081526020015f205f8581526020019081526020015f20819055508773ffffffffffffffffffffffffffffffffffffffff168573ffffffffffffffffffffffffffffffffffffffff167f520b5dc9aca22500c20e731b44039292289de463321d388167f5c0fce85d20e189600160405161105d929190612eaf565b60405180910390a360019550505050505092915050565b60015481565b5f5f8290505f5f90505f5f90505b82518110156110cf578160058360030b901b038382815181106110ae576110ad612cd5565b5b602001015160f81c60f81b60f81c60ff160191508080600101915050611088565b505f5f8260030b126110e157816110e5565b815f035b90505f8160030b12156110fa57637fffffff90505b602d8163ffffffff168161111157611110612be5565b5b066028019350505050919050565b5f5f9054906101000a900473ffffffffffffffffffffffffffffffffffffffff1673ffffffffffffffffffffffffffffffffffffffff163373ffffffffffffffffffffffffffffffffffffffff16146111a4576040517f073d482a00000000000000000000000000000000000000000000000000000000815260040160405180910390fd5b5f73ffffffffffffffffffffffffffffffffffffffff168273ffffffffffffffffffffffffffffffffffffffff1603611209576040517ff7abf3e700000000000000000000000000000000000000000000000000000000815260040160405180910390fd5b8060065f8473ffffffffffffffffffffffffffffffffffffffff1673ffffffffffffffffffffffffffffffffffffffff1681526020019081526020015f205f6101000a81548160ff0219169083151502179055508173ffffffffffffffffffffffffffffffffffffffff167fddf67512b506e8aaffb2b39decdb838af694f399b4a0ad5b129bfe644649c489826040516112a3919061286a565b60405180910390a25050565b600d602052805f5260405f205f915090505481565b5f5f9054906101000a900473ffffffffffffffffffffffffffffffffffffffff1681565b60605f8290505f815167ffffffffffffffff81111561130a576113096126c1565b5b6040519080825280601f01601f19166020018201604052801561133c5781602001600182028036833780820191505090505b5090505f5f90505b825181101561148d57604183828151811061136257611361612cd5565b5b602001015160f81c60f81b60f81c60ff16101580156113a55750605a83828151811061139157611390612cd5565b5b602001015160f81c60f81b60f81c60ff1611155b156114205760208382815181106113bf576113be612cd5565b5b602001015160f81c60f81b60f81c6113d79190612ee9565b60f81b8282815181106113ed576113ec612cd5565b5b60200101907effffffffffffffffffffffffffffffffffffffffffffffffffffffffffffff191690815f1a905350611480565b82818151811061143357611432612cd5565b5b602001015160f81c60f81b82828151811061145157611450612cd5565b5b60200101907effffffffffffffffffffffffffffffffffffffffffffffffffffffffffffff191690815f1a9053505b8080600101915050611344565b508092505050919050565b5f5f6114a3836112e8565b90506114e4816040518060400160405280600481526020017f7363616d00000000000000000000000000000000000000000000000000000000815250610ae6565b156114f3576001915050611852565b611532816040518060400160405280600481526020017f6861636b00000000000000000000000000000000000000000000000000000000815250610ae6565b15611541576001915050611852565b611580816040518060400160405280600a81526020017f667265652d726f62757800000000000000000000000000000000000000000000815250610ae6565b1561158f576001915050611852565b6115ce816040518060400160405280600b81526020017f667265652d63727970746f000000000000000000000000000000000000000000815250610ae6565b156115dd576001915050611852565b61161c816040518060400160405280600881526020017f6769766561776179000000000000000000000000000000000000000000000000815250610ae6565b1561162b576001915050611852565b61166a816040518060400160405280600b81526020017f77696e2d6c6f7474657279000000000000000000000000000000000000000000815250610ae6565b15611679576001915050611852565b6116b8816040518060400160405280600881526020017f67616d626c696e67000000000000000000000000000000000000000000000000815250610ae6565b156116c7576001915050611852565b611706816040518060400160405280600681526020017f636173696e6f0000000000000000000000000000000000000000000000000000815250610ae6565b15611715576001915050611852565b611754816040518060400160405280601181526020017f646f75626c652d796f75722d6d6f6e6579000000000000000000000000000000815250610ae6565b15611763576001915050611852565b6117a2816040518060400160405280600881526020017f61697264726f7073000000000000000000000000000000000000000000000000815250610ae6565b156117b1576001915050611852565b6117f0816040518060400160405280600581526020017f7068697368000000000000000000000000000000000000000000000000000000815250610ae6565b156117ff576001915050611852565b61183e816040518060400160405280600681526020017f6279706173730000000000000000000000000000000000000000000000000000815250610ae6565b1561184d576001915050611852565b5f9150505b919050565b60035481565b6006602052805f5260405f205f915054906101000a900460ff1681565b5f60605f611887846112e8565b90505f8160405160200161189b9190612f57565b604051602081830303815290604052805190602001209050600a5f8281526020019081526020015f205f9054906101000a900460ff16156119355760095f8281526020019081526020015f205f9054906101000a900460ff166040518060400160405280600f81526020017f526567697374727920284e616d65290000000000000000000000000000000000815250935093505050611997565b61193e82611498565b1561196957600f60405180606001604052806024815260200161308660249139935093505050611997565b5f6119738361107a565b90508060405180606001604052806023815260200161306360239139945094505050505b915091565b6009602052805f5260405f205f915054906101000a900460ff1681565b5f5f9054906101000a900473ffffffffffffffffffffffffffffffffffffffff1673ffffffffffffffffffffffffffffffffffffffff163373ffffffffffffffffffffffffffffffffffffffff1614611a3e576040517f073d482a00000000000000000000000000000000000000000000000000000000815260040160405180910390fd5b7f207c4cbdf55ec315a13f0d5e047732ec5d947da056e706593aa509909941cedf60015482604051611a71929190612f6d565b60405180910390a18060018190555050565b5f5f9054906101000a900473ffffffffffffffffffffffffffffffffffffffff1673ffffffffffffffffffffffffffffffffffffffff163373ffffffffffffffffffffffffffffffffffffffff1614611b08576040517f073d482a00000000000000000000000000000000000000000000000000000000815260040160405180910390fd5b7fec48fc0f3bc64460835f83ce9c7600af2cd997a7ce7350429a8304cf6116cf286003546004548484604051611b419493929190612f94565b60405180910390a181600381905550806004819055505050565b600a602052805f5260405f205f915054906101000a900460ff1681565b5f5f339050611b86816121ff565b60055f9054906101000a900460ff168015611be8575060065f8573ffffffffffffffffffffffffffffffffffffffff1673ffffffffffffffffffffffffffffffffffffffff1681526020019081526020015f205f9054906101000a900460ff16155b15611c2a57836040517f25adc142000000000000000000000000000000000000000000000000000000008152600401611c2191906129ea565b60405180910390fd5b5f611c7787878080601f0160208091040260200160405190810160405280939291908181526020018383808284375f81840152601f19601f8201169050808301925050505050505061187a565b50905060025f9054906101000a900460ff1660ff168160ff161015611ce75786868260025f9054906101000a900460ff166040517ff4b5320b000000000000000000000000000000000000000000000000000000008152600401611cde9493929190612fd7565b60405180910390fd5b5f6201518042611cf79190612dda565b90505f600b5f8573ffffffffffffffffffffffffffffffffffffffff1673ffffffffffffffffffffffffffffffffffffffff1681526020019081526020015f205f8381526020019081526020015f205490505f8682611d569190612c6f565b9050600154811115611da55786600154836040517f1294c55a000000000000000000000000000000000000000000000000000000008152600401611d9c93929190612e0a565b60405180910390fd5b80600b5f8773ffffffffffffffffffffffffffffffffffffffff1673ffffffffffffffffffffffffffffffffffffffff1681526020019081526020015f205f8581526020019081526020015f20819055508773ffffffffffffffffffffffffffffffffffffffff168573ffffffffffffffffffffffffffffffffffffffff167f520b5dc9aca22500c20e731b44039292289de463321d388167f5c0fce85d20e1896001604051611e56929190612eaf565b60405180910390a3600195505050505050949350505050565b5f5f9054906101000a900473ffffffffffffffffffffffffffffffffffffffff1673ffffffffffffffffffffffffffffffffffffffff163373ffffffffffffffffffffffffffffffffffffffff1614611ef4576040517f073d482a00000000000000000000000000000000000000000000000000000000815260040160405180910390fd5b60648160ff161115611f3d57806040517f9da880e3000000000000000000000000000000000000000000000000000000008152600401611f34919061293d565b60405180910390fd5b7fb7e9bbc9f71d3543bc0310872c6b816fb7606384cd147770c1462085590ce21260025f9054906101000a900460ff1682604051611f7c929190613015565b60405180910390a18060025f6101000a81548160ff021916908360ff16021790555050565b60025f9054906101000a900460ff1681565b5f5f9054906101000a900473ffffffffffffffffffffffffffffffffffffffff1673ffffffffffffffffffffffffffffffffffffffff163373ffffffffffffffffffffffffffffffffffffffff1614612038576040517f073d482a00000000000000000000000000000000000000000000000000000000815260040160405180910390fd5b5f73ffffffffffffffffffffffffffffffffffffffff168173ffffffffffffffffffffffffffffffffffffffff160361209d576040517ff7abf3e700000000000000000000000000000000000000000000000000000000815260040160405180910390fd5b8073ffffffffffffffffffffffffffffffffffffffff165f5f9054906101000a900473ffffffffffffffffffffffffffffffffffffffff1673ffffffffffffffffffffffffffffffffffffffff167f8be0079c531659141344cd1fd0a4f28419497f9722a3daafe3b4186f6b6457e060405160405180910390a3805f5f6101000a81548173ffffffffffffffffffffffffffffffffffffffff021916908373ffffffffffffffffffffffffffffffffffffffff16021790555050565b6008602052805f5260405f205f915054906101000a900460ff1681565b5f612180836112e8565b6040516020016121909190612f57565b6040516020818303038152906040528051906020012090508160095f8381526020019081526020015f205f6101000a81548160ff021916908360ff1602179055506001600a5f8381526020019081526020015f205f6101000a81548160ff021916908315150217905550505050565b5f6003540315612406575f600c5f8373ffffffffffffffffffffffffffffffffffffffff1673ffffffffffffffffffffffffffffffffffffffff1681526020019081526020015f2090505f818054905090505f600d5f8573ffffffffffffffffffffffffffffffffffffffff1673ffffffffffffffffffffffffffffffffffffffff1681526020019081526020015f205490505f60045442116122a2575f6122b1565b600454426122b09190612ca2565b5b90505f8290505b83811080156122e15750818582815481106122d6576122d5612cd5565b5b905f5260205f200154105b156122f95780806122f190612d02565b9150506122b8565b828111156123445780600d5f8873ffffffffffffffffffffffffffffffffffffffff1673ffffffffffffffffffffffffffffffffffffffff1681526020019081526020015f20819055505b5f81856123519190612ca2565b905060035481106123da575f8683815481106123705761236f612cd5565b5b905f5260205f20015490505f426004548361238b9190612c6f565b6123959190612ca2565b905082600354826040517ffbd23c2a0000000000000000000000000000000000000000000000000000000081526004016123d193929190612e0a565b60405180910390fd5b8542908060018154018082558091505060019003905f5260205f20015f90919091909150555050505050505b50565b5f604051905090565b5f5ffd5b5f5ffd5b5f73ffffffffffffffffffffffffffffffffffffffff82169050919050565b5f6124438261241a565b9050919050565b61245381612439565b811461245d575f5ffd5b50565b5f8135905061246e8161244a565b92915050565b5f6020828403121561248957612488612412565b5b5f61249684828501612460565b91505092915050565b5f60ff82169050919050565b6124b48161249f565b82525050565b5f81519050919050565b5f82825260208201905092915050565b8281835e5f83830152505050565b5f601f19601f8301169050919050565b5f6124fc826124ba565b61250681856124c4565b93506125168185602086016124d4565b61251f816124e2565b840191505092915050565b5f60408201905061253d5f8301856124ab565b818103602083015261254f81846124f2565b90509392505050565b5f8115159050919050565b61256c81612558565b8114612576575f5ffd5b50565b5f8135905061258781612563565b92915050565b5f602082840312156125a2576125a1612412565b5b5f6125af84828501612579565b91505092915050565b6125c18161249f565b81146125cb575f5ffd5b50565b5f813590506125dc816125b8565b92915050565b5f5f604083850312156125f8576125f7612412565b5b5f61260585828601612460565b9250506020612616858286016125ce565b9150509250929050565b5f819050919050565b61263281612620565b811461263c575f5ffd5b50565b5f8135905061264d81612629565b92915050565b5f5f6040838503121561266957612668612412565b5b5f61267685828601612460565b92505060206126878582860161263f565b9150509250929050565b61269a81612620565b82525050565b5f6020820190506126b35f830184612691565b92915050565b5f5ffd5b5f5ffd5b7f4e487b71000000000000000000000000000000000000000000000000000000005f52604160045260245ffd5b6126f7826124e2565b810181811067ffffffffffffffff82111715612716576127156126c1565b5b80604052505050565b5f612728612409565b905061273482826126ee565b919050565b5f67ffffffffffffffff821115612753576127526126c1565b5b61275c826124e2565b9050602081019050919050565b828183375f83830152505050565b5f61278961278484612739565b61271f565b9050828152602081018484840111156127a5576127a46126bd565b5b6127b0848285612769565b509392505050565b5f82601f8301126127cc576127cb6126b9565b5b81356127dc848260208601612777565b91505092915050565b5f5f604083850312156127fb576127fa612412565b5b5f83013567ffffffffffffffff81111561281857612817612416565b5b612824858286016127b8565b925050602083013567ffffffffffffffff81111561284557612844612416565b5b612851858286016127b8565b9150509250929050565b61286481612558565b82525050565b5f60208201905061287d5f83018461285b565b92915050565b5f5ffd5b5f5ffd5b5f5f83601f8401126128a05761289f6126b9565b5b8235905067ffffffffffffffff8111156128bd576128bc612883565b5b6020830191508360018202830111156128d9576128d8612887565b5b9250929050565b5f5f5f604084860312156128f7576128f6612412565b5b5f84013567ffffffffffffffff81111561291457612913612416565b5b6129208682870161288b565b93509350506020612933868287016125ce565b9150509250925092565b5f6020820190506129505f8301846124ab565b92915050565b5f6020828403121561296b5761296a612412565b5b5f82013567ffffffffffffffff81111561298857612987612416565b5b612994848285016127b8565b91505092915050565b5f5f604083850312156129b3576129b2612412565b5b5f6129c085828601612460565b92505060206129d185828601612579565b9150509250929050565b6129e481612439565b82525050565b5f6020820190506129fd5f8301846129db565b92915050565b5f6020820190508181035f830152612a1b81846124f2565b905092915050565b5f819050919050565b612a3581612a23565b8114612a3f575f5ffd5b50565b5f81359050612a5081612a2c565b92915050565b5f60208284031215612a6b57612a6a612412565b5b5f612a7884828501612a42565b91505092915050565b5f60208284031215612a9657612a95612412565b5b5f612aa38482850161263f565b91505092915050565b5f5f60408385031215612ac257612ac1612412565b5b5f612acf8582860161263f565b9250506020612ae08582860161263f565b9150509250929050565b5f5f5f5f60608587031215612b0257612b01612412565b5b5f85013567ffffffffffffffff811115612b1f57612b1e612416565b5b612b2b8782880161288b565b94509450506020612b3e87828801612460565b9250506040612b4f8782880161263f565b91505092959194509250565b5f60208284031215612b7057612b6f612412565b5b5f612b7d848285016125ce565b91505092915050565b5f8160601b9050919050565b5f612b9c82612b86565b9050919050565b5f612bad82612b92565b9050919050565b612bc5612bc082612439565b612ba3565b82525050565b5f612bd68284612bb4565b60148201915081905092915050565b7f4e487b71000000000000000000000000000000000000000000000000000000005f52601260045260245ffd5b5f612c1c82612620565b9150612c2783612620565b925082612c3757612c36612be5565b5b828206905092915050565b7f4e487b71000000000000000000000000000000000000000000000000000000005f52601160045260245ffd5b5f612c7982612620565b9150612c8483612620565b9250828201905080821115612c9c57612c9b612c42565b5b92915050565b5f612cac82612620565b9150612cb783612620565b9250828203905081811115612ccf57612cce612c42565b5b92915050565b7f4e487b71000000000000000000000000000000000000000000000000000000005f52603260045260245ffd5b5f612d0c82612620565b91507fffffffffffffffffffffffffffffffffffffffffffffffffffffffffffffffff8203612d3e57612d3d612c42565b5b600182019050919050565b5f612d5483856124c4565b9350612d61838584612769565b612d6a836124e2565b840190509392505050565b5f6040820190508181035f830152612d8e818587612d49565b9050612d9d60208301846124ab565b949350505050565b5f606082019050612db85f8301866129db565b612dc560208301856124ab565b612dd260408301846124ab565b949350505050565b5f612de482612620565b9150612def83612620565b925082612dff57612dfe612be5565b5b828204905092915050565b5f606082019050612e1d5f830186612691565b612e2a6020830185612691565b612e376040830184612691565b949350505050565b7f5472616e73616374696f6e20617070726f766564206279204167656e745368695f8201527f656c640000000000000000000000000000000000000000000000000000000000602082015250565b5f612e996023836124c4565b9150612ea482612e3f565b604082019050919050565b5f606082019050612ec25f830185612691565b612ecf602083018461285b565b8181036040830152612ee081612e8d565b90509392505050565b5f612ef38261249f565b9150612efe8361249f565b9250828201905060ff811115612f1757612f16612c42565b5b92915050565b5f81905092915050565b5f612f31826124ba565b612f3b8185612f1d565b9350612f4b8185602086016124d4565b80840191505092915050565b5f612f628284612f27565b915081905092915050565b5f604082019050612f805f830185612691565b612f8d6020830184612691565b9392505050565b5f608082019050612fa75f830187612691565b612fb46020830186612691565b612fc16040830185612691565b612fce6060830184612691565b95945050505050565b5f6060820190508181035f830152612ff0818688612d49565b9050612fff60208301856124ab565b61300c60408301846124ab565b95945050505050565b5f6040820190506130285f8301856124ab565b61303560208301846124ab565b939250505056fe486575726973746963202844657465726d696e69737469632041646472657373204861736829486575726973746963202844657465726d696e6973746963204e616d652048617368294865757269737469632028537573706963696f7573204b6579776f7264204d6174636829a26469706673582212207548573d2f239b1dcf400534d8d1d4adc05a5238b499232a18264df3d291e3af64736f6c63430008230033","linkReferences":{}},"methodIdentifiers":{"checkAndRecord(address,uint256)":"606966be","checkAndRecordString(string,address,uint256)":"e9528560","contains(string,string)":"3fb18aec","customAddressReputation(address)":"500e595c","customNameReputation(bytes32)":"a28117f7","dailyLimit()":"67eeba0c","dailySpend(address,uint256)":"2b291c2c","getAddressReputation(address)":"00dadf3a","getDeterministicScoreString(string)":"6a18a122","getNameReputation(string)":"9fc4362d","hasCustomAddressReputation(address)":"f3e6d0eb","hasCustomNameReputation(bytes32)":"e2e14433","isSuspicious(string)":"958fc13a","minReputation()":"ef7f0ab6","owner()":"8da5cb5b","rateLimitMaxRequests()":"96d13eea","rateLimitStartIndex(address)":"8362b108","rateLimitWindow()":"4df02900","setAddressReputation(address,uint8)":"0f799b9c","setDailyLimit(uint256)":"b20d30a9","setMinReputation(uint8)":"eaf83755","setNameReputation(string,uint8)":"4a0fa8d0","setRateLimit(uint256,uint256)":"b53f5227","setWhitelistEnabled(bool)":"052d9e7e","toLower(string)":"9416b423","transferOwnership(address)":"f2fde38b","txTimestamps(address,uint256)":"4dc9befa","updateMerchantWhitelist(address,bool)":"7c8b2be2","whitelist(address)":"9b19251a","whitelistEnabled()":"51fb012d"},"id":22}